:020000040800F2
:10000000E05D0020E1010008C95E0008793F0008BA
:10001000D9580008110D0008596D000800000000B3
:10002000000000000000000000000000490100087E
:10003000710F0008000000008D01000835660008FF
:10004000FB010008FB010008FB010008FB010008A0
:10005000FB010008FB010008FB010008FB01000890
:10006000FB010008FB010008FB010008FB01000880
:10007000FB010008FB010008FB010008FB01000870
:10008000210D00082D0D0008FB010008FB010008F0
:10009000FB010008FB010008FB010008FB01000850
:1000A000FB010008D5660008FB010008FB01000801
:1000B000E1660008ED660008F9660008893F00085F
:1000C0007D3F0008FB010008FB010008FB01000860
:1000D000FB010008FB010008856C0008FB0100081B
:1000E000FB010008FB010008FB010008FB01000800
:1000F000FB010008FB010008FB010008FB010008F0
:10010000FB010008FB01000805670008FB0100086F
:100110003D690008FB010008FB010008FB01000825
:10012000FB010008FB010008390D0008450D00081F
:10013000DFF810D000F08EFC004800477977000807
:10014000AFF30080E05D0020224B19680868B0E83A
:10015000F00F80F30988BFF36F8F4FF0000080F33A
:1001600011884EF00D0E7047000000000648006830
:10017000006880F3088862B661B6BFF34F8FBFF3A3
:100180006F8F00DF00BF00BF08ED00E0EFF30980D4
:10019000BFF36F8F0F4B1A6820E9F00F106008B59E
:1001A0004FF0500080F31188BFF34F8FBFF36F8F74
:1001B00007F0ECFF4FF0000080F31188BDE8084025
:1001C00019680868B0E8F00F80F30988BFF36F8FF3
:1001D000704700BF10010020EFF30580704700005A
:1001E0000648804706480047FEE7FEE7FEE7FEE7D1
:1001F000FEE7FEE7FEE7FEE7FEE7FEE7C366000870
:1002000031010008202A04DB203A21FA02F0002103
:10021000704721FA02F3D040C2F120029140084316
:100220001946704740EA01039B0703D009E008C95B
:10023000121F08C0042AFAD203E011F8013B00F8AB
:10024000013B521EF9D27047D2B201E000F8012BF7
:10025000491EFBD270470022F6E710B513460A4646
:1002600004461946FFF7F0FF204610BDF0B480EABF
:100270000102D40F4200B2EB410F02D202460846FF
:1002800011464A0042D0C30DDDB2C1F3C752AD1AC8
:10029000202D35DAC1F3160141F4000204B15242B7
:1002A000C5F1200602FA06F12A411044B3EBD05FF3
:1002B00023D0C4B1012DA0EBC35009DCF0BC4FF03A
:1002C000004202EAC352DBB200F5000000F007BBB7
:1002D000400000F1807000EBC350A0F1807040EA54
:1002E000D170490009E0490841EAC071A0EBC35050
:1002F00000F50000400800EBC350F0BC00F0E6BA87
:100300006142012202EB4101001BF6E7F0BC70479D
:1003100081F00041AAE780F00040A7E780EA0102EF
:1003200010B502F00043400022D04A001FD0010E59
:1003300001EB1261C0F35600C2F3560240F4000014
:1003400042F40002A0FB022000047F39140400D014
:10035000401C50EA124001D44000491EC2B20C06B3
:1003600004EBD010401C4008802A02D003E000209B
:1003700010BD20F00100002900DA0020184310BD54
:1003800030B480EA010202F0004530F0004221F072
:10039000004013D090B1C30DD40DC2F31601C0F3C9
:1003A0001600E41A41F4000140F400027D34914249
:1003B00001D3641C00E04900002C02DA30BC0020AC
:1003C00070474FF400000023914201D3891A034380
:1003D00040084FEA4101F7D151B1914202D14FF0AB
:1003E000004105E002D24FF0010101E06FF0010190
:1003F00003EBC450284430BC00F068BA420005D07A
:10040000C0F3C7525242914201DC0020704700EB1A
:10041000C15070472DE9FE4F804681EA0300C00FAE
:100420000C46009021F0004123F00045B8EB02009B
:10043000A94105D24046214690461C460B4602463D
:1004400023F00040104347D0270DC7F30A00C3F341
:100450000A510290401A019040286BDAC3F313004E
:1004600040F4801B0098924620B10023D2EB030A8F
:1004700063EB0B0B01985946C0F14002504600F067
:1004800004FA06460D4650465946019A00F00CFA09
:1004900010EB08006141002487EA115284EAE773F7
:1004A0001A4340D0009A62B3019A012A4FEA0752D8
:1004B00015DC001B61EB02014FF0004202EA07521B
:1004C000CDE90042001C41F5801132462B4600F078
:1004D00043FA03B0BDE8F08F40462146F9E7001B20
:1004E00061EB0201001C41F5801300185B412018EC
:1004F000A2F5001747EB030140EAD570B6196D412C
:1005000011E06D084FEA360645EAC0754FEA07521A
:10051000001B61EB0201001C41F5801149084FEA04
:1005200030000019514132462B4603B0BDE8F04F70
:1005300000F003BA0098012240000023D0EB020231
:1005400063EBE073009821464FEAE074B8EB0000DB
:1005500061EB0401E9E783F000435BE781F00041D0
:1005600058E72DE9FE4F81EA030404F0004421F02E
:10057000004100944FF0000B23F0004350EA0104C7
:100580005ED052EA03045BD0C3F30A54C1F30A55A8
:100590002C44A4F2F3340194A0FB0254C1F31301E0
:1005A00041F48011C3F3130343F4801301FB0244AD
:1005B00000FB034E840A970A44EA815447EA8357B2
:1005C000A4FB076802958D0A05FB07854FEA932C6B
:1005D00004FB0C542705029D4FEA065847EA1637DC
:1005E000B5EB08056EEB070C870E920E47EA8117F4
:1005F00042EA8312A7FB0201B6EB0B0164EB000495
:100600002B0D43EA0C335E1844EB1C50DA4651467E
:10061000E7FB0201C5F313044FEA0B3343EA14531B
:100620004FEA0432019C43EA0603A4F10C0402944D
:10063000009CCDE900B400F08FF903B0BDE8F08F65
:1006400000200146F9E72DE9F04D81EA030404F0AA
:10065000004B21F0004514464FF0000A23F0004102
:1006600050EA050220D054EA01021DD0C5F30A5712
:100670000246C5F31303C1F31300C1F30A5640F455
:10068000801543F48013A7EB0608101BD64608F22A
:10069000FD3873EB050002D308F1010801E0921860
:1006A0005B41B8F1000F03DA00200146BDE8F08D90
:1006B00000204FF48011064684460EE0171B73EBB2
:1006C000050705D3121B63EB050306434CEA010C37
:1006D00049084FEA300092185B4150EA0107EDD11A
:1006E00052EA030012D082EA040083EA05010843BB
:1006F00005D0101BAB4106D20122002306E00022E8
:100700004FF0004302E06FF0010253101AEB0600B5
:100710004CEB085110EB0A0041EB0B01BDE8F04D2A
:1007200000F00BB9C10F80EAE0700844CA079623B5
:10073000002100F0D4B896230022114600F0CFB873
:100740000EB5C10F80EAE0700844CA07002140F2EC
:1007500033438DE80E000A460B4600F0FDF803B067
:1007600000BD00F0004220F00040C10DC0F31600B3
:1007700040F400007F2901DA00207047962903DC4D
:10078000C1F19601C84001E096398840002AF4D0B2
:100790004042704720F00040C10DC0F3160040F405
:1007A00000007F2901DA00207047962903DCC1F19F
:1007B0009601C840704796398840704770B5C1F3BC
:1007C0000A5201F000450024C1F3130140F2FF3347
:1007D00041F480119A4201DA002070BD40F23343A7
:1007E0009A42A2F2334203DC5242FFF70BFD00E0D3
:1007F00090402C43F1D0404270BDC1F30A5210B575
:10080000C1F3130140F2FF3341F480119A4201DA3F
:10081000002010BD40F233439A42A2F2334203DC7F
:100820005242FFF7EFFC10BD904010BD00F00042B7
:1008300030F000400AD0C10D01F56071C0F3160020
:1008400042EA0151C20840071143704700200146A7
:10085000704701F0004330B421F0004150EA01023A
:1008600006D00A0DA2F56072C1F31301002A02DC62
:1008700030BC00207047440F44EAC104C100E018B6
:1008800030BC00EBC25000F021B8202A04DB203A33
:1008900000FA02F1002070479140C2F1200320FAD3
:1008A00003F3194390407047202A06DBCB17203A08
:1008B00041FA02F043EAE07306E041FA02F3D04065
:1008C000C2F1200291400843194670470029A8BF91
:1008D0007047401C490008BF20F00100704710B469
:1008E000B0FA80FC00FA0CF050EA010404BF10BC1E
:1008F000704749B1CCF1200421FA04F411FA0CF14B
:1009000018BF012121430843A3EB0C01CB1D4FEA83
:1009100000614FEA102042BF002010BC704700EB7E
:10092000C35010440029A4BF10BC7047401C4900AC
:1009300008BF20F0010010BC704710B5141E73F101
:10094000000408DA401C41F1000192185B411A438F
:1009500001D120F0010010BD2DE9F04D92469B46DB
:1009600011B1B1FA81F202E0B0FA80F22032904681
:10097000FFF78BFF04460F4640EA0A0041EA0B01ED
:1009800053465A46084313D0114653EA010019D082
:10099000C8F140025046FFF735FC05460E4650466A
:1009A00059464246FFF771FF084305D0012004E095
:1009B00020463946BDE8F08D0020054346EAE07642
:1009C0002C4337430A986305E40AA0EB0800002291
:1009D000FD0A44EA47540A3002D500200146E9E7FF
:1009E000010510196941DDE9084500196941BDE8B3
:1009F000F04DA2E770B521F0004303430CD0C1F3E2
:100A00000A550024D5EB040564EB0403D617AD1A90
:100A1000B34102DB0020014670BD201841EB0251BA
:100A200070BD000030B5041E71F1000404DB4FF00E
:100A30000044404264EB0101141E73F1000405DB25
:100A40001C464FF00043524263EB04038B4208BF45
:100A5000824230BD064C074D06E0E06840F00103DD
:100A600094E8070098471034AC42F6D3FFF764FBD4
:100A7000808B0008A08B00082DE9F04D00231A465A
:100A80001B1A8A4103DB00200146BDE8F08DC1F34B
:100A90000A52C1F3130141F480154FF0000BD10746
:100AA00002D100186D41521E0027044640F2FF118A
:100AB000384601EB620A3E468046024600204FF46B
:100AC0008011FFF79FFBC2197141BB1846EB010073
:100AD000B4EB030C75EB000C04D3E41A65EB0005D2
:100AE00017460E46241908F101006D41804634284E
:100AF000E3DDF91946EB0600091BA84103D24FF0CC
:100B0000FF32134601E0002213461BEB070046EBC1
:100B10000A51BDE8F04DFFF710BF30B58C1810F842
:100B2000012B12F00F0301D110F8013B120906D17D
:100B300010F8012B03E010F8015B01F8015B5B1E6C
:100B4000F9D101E001F8013B521EFBD1A142E6D3ED
:100B5000002030BD70B5044600688168C943C907EC
:100B600017D1816821F00101816001F01BFB05466E
:100B70000AE000BF01F016FB401B022804D92068E0
:100B80008068C043C00706D020688068C043C007A3
:100B9000F0D0002070BDA06A40F01000A062E06AB2
:100BA00040F00100E062012070BD10B50146406ACE
:100BB000826A12F0500F05D0006A026BBDE8104047
:100BC00008461047816A41F40071816201688968B2
:100BD000C1F3424107290CD1017B51B9816A21F44B
:100BE00080718162816AC90403D4816A41F0010184
:100BF000816200F0A7FD10BD10B5406A816A41F026
:100C000040018162C16A41F00401C16200F09CFDB3
:100C100010BD10B5406A00F096FD10BDF8B5002675
:100C20000446009600688168C943C9072DD08168D1
:100C300041F001018160164816490068B0FBF1F0EF
:100C400000E0401E00900028FBD101F0ABFA054601
:100C500016E000BF01F0A6FA401B022810D9206858
:100C60008068C043C0070BD0A06A40F01000A062AB
:100C7000E06A40F00100E06284F824600120F8BDE1
:100C800020688068C043C007E4D10020F8BD0000A0
:100C90004C00002040420F0010B5064800F068FCF0
:100CA00002220549034800F089FEBDE810400148D2
:100CB00000F024BE740100200000002088B007F07E
:100CC00049F900200090019002900E4903A804F019
:100CD0002DFA4FF4FA7407F05DF90B4D07F006FD9D
:100CE00006900A4A694603A806F00EF8686B20B120
:100CF00000230122694607F039FB214606A806F0C9
:100D0000A9FDEBE79A99993E080000200000002019
:100D1000FEE70000014900200860704754000020F1
:100D2000014800F091BF000084050020014800F058
:100D30008BBF0000C8050020014800F085BF0000FF
:100D4000FC040020014800F07FBF000040050020A7
:100D500030B590F840500124AC40C56B6C6004681D
:100D600063604368102B036803D099600068C26019
:100D700030BD9A600068C16030BD000008B507F062
:100D8000E9F807F007F900BF07F0B0FC009005F0A4
:100D9000B9F80521684606F05DFDF5E770B5044633
:100DA00006F0B6FC0025012815D006F0B1FC00289D
:100DB00019D1134805F09CFA012810D0002812D14F
:100DC0000F48417801290FD0B1B104290BD16560DA
:100DD0000420E56006E065600320E56002E020692C
:100DE00060600220207070BD41686160C068C4E925
:100DF0000301A0610120F5E76560E560257070BD25
:100E0000A4060020A0B007F0A5F81C2255496846AA
:100E1000FFF708FA24210CA8FFF71DFA00273E4629
:100E2000B84616971797189709970A970B9714259E
:100E300007F0B0F84C4C00BF06F07EFCB84204D07E
:100E400005F043F806F078FC074606F075FC801BB9
:100E500005285FD305F0BCF9F0B3A06AE0B368469B
:100E6000FFF79CFF9DF8000030B101281FD0032838
:100E700021D0042836D044E0012005F0D5F909A896
:100E800005F076F808B1002503E06D1CEDB2142DD5
:100E900005D20B980390099801900A9830E0CDF89C
:100EA0000C80CDF804801E25CDF8088029E00220B2
:100EB00005F0BAF925E0032005F0B6F9CDF8188061
:100EC0000022CDF80C80CDF81080CDF81480CDF83C
:100ED00004802021254800E019E0CDF8088001F0C9
:100EE0005BF90EE0042005F09FF9CDF8188040462C
:100EF000CDF80C80CDF81080CDF81480CDF80480AA
:100F00000290002301226946A06A07F02FFA06F03A
:100F100013FC06469DF8000008B101288CD1206B17
:100F200038B10A220CA907F0D1FA10B10CA806F0CA
:100F3000ABFFE06A38B1012219A907F0C7FA10B176
:100F400019A806F0B7FF606B00283FF475AF0122C7
:100F500016A907F0BBFA0028F7D016A806F08CFFF8
:100F60006AE70000108A0008080000200010014015
:100F7000704700000146014800F014B8FC0600204C
:100F80000146014800F00EB808070020014601485C
:100F900000F008B8140700200146014800F002B82C
:100FA00020070020002202608280C28002818172BC
:100FB000C2720848022907D0032907D0042907D0A4
:100FC000052900D1C2807047028070474280704777
:100FD00082807047640000206FF00101012811D069
:100FE00002281CD0032827D0042832D119480268CF
:100FF00011610068C16841F00101C1600421154818
:1010000002F08CBA13484830026811610068C16868
:1010100041F00101C1600F4804214830F0E70D485C
:101020004838026811610068C16841F00101C1607F
:10103000084804214838E3E7064890300268116107
:101040000068C16841F00101C1600248042190308C
:10105000D6E77047A802002030B50122C272827A1A
:10106000194B022A0AD0032A0ED0042A27D0052AB7
:1010700024D1164A1268DB8892B209E04FF0804210
:10108000526A1B8892B203E0114A12685B8892B2DE
:101090008380038942F21074D31A1BB29DB2C380BD
:1010A000A54200D9C3800281C3884B43C380838893
:1010B00002EB03424A4300210260C17230BD054A7F
:1010C00012689B8892B2E3E764000020240C004081
:1010D0002404004024080040704700001CB50E2185
:1010E0000E48CDE9000101233B22D1210C4801F03B
:1010F000CBFA0A48403890F8491010F8482F41EAD6
:10110000022208494A63C278837842EA03228A634A
:101110004279007942EA0020C8631CBD9406002091
:101120000C020020880000200148406A80B270470D
:10113000001000402DE9F05F04460846FFF7FBFA77
:1011400001462046FFF71CF98F4C9049DFF840829A
:10115000904DA060884214DDFFF768FB8E4A8F4BEC
:10116000FFF7F9F9FFF775FBFFF760FB42468C4B81
:10117000FFF769FA00222B46FFF7F3F90022894BAB
:1011800017E08949894E884216DBFFF74FFB884AF2
:10119000884BFFF7E0F9FFF75CFBFFF747FB3246B0
:1011A000854BFFF750FA00222B46FFF7DAF90022B1
:1011B000824BFFF72FF9DAE08149DFF808B2DFF858
:1011C0000892884215DBFFF731FB4FEA6B027F4B39
:1011D000FFF7C1F9FFF73DFBFFF728FB5A464B46E7
:1011E000FFF731FA00222B46FFF7BBF90022784BBC
:1011F000DFE77849DFF8E0A1784F884214DDFFF798
:1012000015FB774A774BFFF7A6F9FFF722FBFFF7AD
:101210000DFB52463B46FFF716FA00222B46FFF71E
:10122000A0F90022704BC4E77049884214DDFFF733
:10123000FDFA6F4A6F4BFFF78EF9FFF70AFBFFF7D6
:10124000F5FA52463B46FFF7FEF900222B46FFF720
:1012500088F90022684BACE76849694F884214DD81
:10126000FFF7E4FA674A684BFFF775F9FFF7F1FA01
:10127000FFF7DCFA5A463B46FFF7E5F900222B461A
:10128000FFF76FF90022614B93E76149884215DD52
:10129000FFF7CCFA464A5F4B5242FFF75CF9FFF783
:1012A000D8FAFFF7C3FA32465B4BFFF7CCF90022BE
:1012B0002B46FFF756F90022584B7AE758498842E7
:1012C00014DBFFF7B3FA4246564BFFF744F9FFF73A
:1012D000C0FAFFF7ABFA5A463B46FFF7B4F90022D3
:1012E0002B46FFF73EF900224F4B62E7404E4F4935
:1012F0007642884214DBFFF799FA32464C4BFFF7EF
:101300002AF9FFF7A6FAFFF791FA5A464B46FFF77C
:101310009AF900222B46FFF724F900222B4648E7D2
:101320004449884214DBFFF781FA5246424BFFF7EB
:1013300012F9FFF78EFAFFF779FA32463F4BFFF7C3
:1013400082F900222B46FFF70CF900223C4B30E7D4
:101350003C49884216DBFEF7DBFFFFF767FA3A4AA3
:101360003A4BFFF770F900222B46FFF7FAF8FFF728
:1013700044FA2070C0B2642801D964202070C0B241
:10138000BDE8F09F0020F9E77800002085EB814060
:10139000EC51B81E000024403D0AD7A3703D104018
:1013A00085EBC13F0080564052B87E407B14AE476B
:1013B000D7A3703D0AD70F40E17AB43F00005440F4
:1013C00048E17A40B81E85EB51B8AE3F285C0F402B
:1013D0000080514014AE77409A9999999999A93F04
:1013E000F6285C8FC2F50E4000004E40E17A744052
:1013F0008FC2F5285C8F0E40000049405C8F724020
:1014000051B89E3F52B81E85EB510E40000044403B
:10141000AE477140F5280E40E17A943F00003E400F
:10142000295C6F4085EB0D40000034401F856B4008
:10143000A3700D40CDCC5C4099990B40A370CD3F7B
:101440000000144000004040CDCCCCCCCCCCDC3FE4
:101450002DE9FE4F4FF0000A414D4CF250340294FA
:10146000A5F82AA0A5F82CA0D146D046A5F82EA014
:10147000FFF734FEAB4647E00E213A48CDE90001C4
:1014800001233B22D121384801F0FEF8354840388D
:1014900090F8491010F8482F41EA02210FB2ABF83A
:1014A0002470C278837842EA032216B2ABF8266031
:1014B0004279007942EA002005B2ABF8285038465C
:1014C000FFF730F95146FEF7D1FE82463046FFF76E
:1014D00029F94946FEF7CAFE81462846FFF722F958
:1014E0004146FEF7C3FE21498046486B0A6C381A14
:1014F00010440864886B4A6C301A10444864C86B06
:101500008A6C281A10448864641EB5D20298FFF7CA
:1015100009F9044621465046FEF732FFFFF721F94C
:10152000ABF836005D4621464846FEF729FFFFF737
:1015300018F9288721464046FEF722FFFFF711F9E8
:1015400068870848403803F067FE0648403803F0D3
:10155000A9FEBDE8FE4F0348403803F0C1BE0000BD
:101560001C080020940600200C02002088000020A7
:10157000F8B500250446009590F82400012808D00D
:10158000012084F824002046FFF7E4FA060002D088
:1015900053E00220F8BDA06A20F4885040F0020019
:1015A000A062022001F04CFA26490968B1FBF0F074
:1015B000400000E0401E00900028FBD12046FFF7CD
:1015C0002DFB2068816841F00801816000F0EAFD90
:1015D000074608E000F0E6FDC01B0A2803D9206892
:1015E0008068000715D4206880680007F2D420685E
:1015F000816841F00401816000F0D4FD074612E0EB
:1016000000F0D0FDC01B0A280DD920688068400773
:1016100009D5A06A20F0020040F01000A06284F812
:1016200024500120F8BD206880684007E8D4A06AF3
:1016300020F0020040F00100A06284F824503046FF
:10164000F8BD00004C000020F8B50024009490F88C
:1016500024202546012A12D0012280F824204A683D
:101660001F23072A0DD20668776B521E02EB8202F7
:1016700093409F430B6893401F43776319E0022018
:10168000F8BD06680D2A0AD2376BD21F02EB820220
:1016900093409F430B6893401F43376309E0F76A09
:1016A0000D3A02EB820293409F430B6893401F4325
:1016B000F7620A68072306680A2A0AD3F7680A3A13
:1016C00002EB420293409F438B6893401F43F760B5
:1016D00008E0376902EB420293409F438B689340D6
:1016E0001F4337610A68102A01D0112A20D1124BFA
:1016F00002689A4217D193681B0219D4936843F485
:10170000000393600968102912D10C490C4A09683A
:10171000B1FBF2F101EB8101490000E0491E0091AB
:101720000029FBD104E0816A41F02001816201249B
:1017300080F824502046F8BD002401404C000020D1
:1017400040420F0070477047704700002DE9F0419C
:1017500004004FF000057FD0A06A002628B9E66299
:1017600084F82460204600F081F82046FFF7F2F963
:10177000A16AC90600D420B1A06A40F01000A0629E
:101780006AE0A16A21F4885141F00201A162334963
:1017900023688B42E16904D1B1F5402F01D14FF4A8
:1017A0000021277B4FF4807C41EA470261680A43AD
:1017B000A168614508D0012906D0002194F814E001
:1017C000BEF1010F02D00AE06146F7E7C7B1A76A90
:1017D00047F02007A762E76A47F00107E7625F6802
:1017E00027F469470F435F60236899681C4F3940AD
:1017F00011439960A16861450BD0012909D00CE023
:10180000DFF860E0A7690EEB47370F4347F400614C
:10181000E5E7218A0D05A5F580152168CB6A23F43B
:1018200070032B43CB62216889680F4B19409142AA
:1018300008D1E662A16A21F0020141F00101A16232
:10184000BDE8F081A06A20F0020040F01000A06224
:10185000E06A40F00100E0620120F1E7003C014055
:10186000FDF7E1FF00E0FFFFFE0E1FFF70B586B041
:1018700000260546009601960296039600681A49CE
:1018800088422FD11949886940F4007088618869BD
:1018900000F400700490886940F004008861886951
:1018A000694600F00400049010200090032001908D
:1018B0000F4800F075FB104C0E48C4E9000680206C
:1018C000C4E9026080002061800060612020A06186
:1018D0000002E061204600F0DBFA08B1FFF7FCFBF4
:1018E0002C62656206B070BD002401400010024009
:1018F0000008014008000240A401002070B5044621
:1019000090F8240001280DD0012084F824002046FE
:10191000FFF784F902004FF0000005D084F824009E
:10192000104670BD022070BDA16A40F201239943A8
:1019300041F48071A1621F4D23681F49AB4218D149
:101940000E6816F4702F14D0A66A46F48016A662AC
:101950000E68760505D5A66A26F4005646F480562C
:10196000A662A66AF6040AD5E66A26F00606E662CC
:1019700006E0A66A26F48016A6625E68E9E7E062E1
:1019800084F824006FF00200186020688368C3F3B5
:101990004243072B05D1A84208D1096811F4702FE2
:1019A00004D0816841F480118160B9E7816841F415
:1019B000A001F9E700280140042401402DE9F04787
:1019C000894604463B4900683B4F0E1D90468842BD
:1019D00001D0B84207D1306810F4702F03D0012530
:1019E0002846BDE8F08794F8240001280CD0012097
:1019F00084F824002046FFF711F905004FF000009D
:101A000004D084F82400EBE70220EAE7A16A40F65C
:101A10000162914341F48071A1622168B94218D1F9
:101A2000326812F4702F14D0A16A41F48011A162BF
:101A30003168490505D5A16A21F4005141F480516E
:101A4000A162A16AC9040AD5E16A21F00601E16236
:101A500006E0A26A22F48012A2624968E9E7E06225
:101A600084F82400216A15488862216A1448C862F3
:101A7000216A1448086321686FF00200086020683A
:101A8000816841F480718160216843464A464C3147
:101A9000206A00F03BFA20688168C1F342410729BF
:101AA000816803D041F48011816099E741F4A0017D
:101AB000FAE700000024014000280140AB0B0008B9
:101AC000130C0008F90B000810B590F82110002243
:101AD000022905D00421816380F82020012010BD57
:101AE00001680B6823F00E030B6001680B6823F09C
:101AF00001030B6090F84030C46B012101FA03F33D
:101B0000636080F8211080F82020104610BD00008E
:101B10002DE9F05F90F821100024022903D0042160
:101B20008163012485E001680A6822F00E020A60E0
:101B300001680A6822F001020A603F4E3E4FB2156A
:101B4000DFF8F4C0DFF8F090DFF8ECA0DFF8E8B0E1
:101B5000DFF8E4E00168783F13011502ACF1640C92
:101B6000A9F15009AAF13C0AABF1280BAEF1140E11
:101B70004FF48018B14227D9B9420ED0614512D036
:101B800049451DD0514518D0594518D0714501D14E
:101B9000424615E0294EB14201D1012210E0274E04
:101BA0001436B14201D110220AE0244E2836B14247
:101BB00006D0224A3C32914201D11A4600E02A4620
:101BC0001E49091F0A602BE0B94213D0614517D0A6
:101BD000494522D051451DD059451DD0714501D1EF
:101BE00042461AE0B14202D14FF0807215E0134E26
:101BF000B14201D1012210E0104E1436B14201D1A0
:101C000010220AE00D4E2836B14206D00B4A3C3273
:101C1000914201D11A4600E02A46074980394A60BC
:101C2000012180F82110002180F82010416B01B1C2
:101C300088472046BDE8F09F80000240080402402B
:101C400090F82100704700002DE9F05FC16B0A6831
:101C500001680B68046C4FF0040808FA04F8844D1E
:101C6000844E854FDFF814C2DFF81492DFF814A217
:101C7000DFF814B2DFF814E218EA020F65D05FEA69
:101C8000437862D50A68920603D40A6822F00402F7
:101C90000A60DFF8F0814FF48062016808F11408EF
:101CA00013011402414524D9A9420DD0B1420FD0ED
:101CB000B9421AD0614515D0494515D0514501D1D9
:101CC000120312E0594501D104220EE0714501D101
:101CD00040220AE06D4D1435A94206D06B4A2832E5
:101CE000914201D11A4600E022466749091F0A6065
:101CF00029E0A94213D0B14215D0B94220D06145A4
:101D00001BD049451BD0514502D14FF4800217E04A
:101D1000414502D14FF0806212E0594501D10422C1
:101D20000EE0714501D140220AE0584D1435A94218
:101D300006D0564A2832914201D11A4600E0224686
:101D40004B4908394A60C16A71E04FF0020808FA4D
:101D500004F818EA020F70D05FEA83786DD50A683C
:101D6000920606D40A6822F00A020A60012180F86D
:101D70002110DFF810814FF40072016808F1140897
:101D800013011402414524D9A9420DD0B1420FD00C
:101D9000B9421AD0614515D0494515D0514501D1F8
:101DA000120312E0594501D102220EE0714501D122
:101DB00020220AE0354D1435A94206D0334A283294
:101DC000914201D11A4600E022462F49091F0A60BC
:101DD00029E0A94213D0B14215D0B94220D06145C3
:101DE0001BD049451BD0514502D14FF4001217E0DA
:101DF000414502D14FF0007212E0594501D1022253
:101E00000EE0714501D120220AE0204D1435A9428F
:101E100006D01E4A2832914201D11A4600E02246DD
:101E2000134908394A60002180F82010816A00298E
:101E30001CD0BDE8F05F0847FFE70825A540154224
:101E400014D01A0712D50A6822F00E020A6090F820
:101E50004020C36B012101FA02F25A60816380F8CD
:101E60002110002180F82010016BE0E7BDE8F09F11
:101E7000080002401C0002403000024044000240C2
:101E8000580002406C000240080402401C0402405A
:101E900030B560B11A4B026814219A4209D2194B2D
:101EA0001344B3FBF1F18900016417490AE00120F2
:101EB00030BD134B5B421344B3FBF1F18900016465
:101EC0000F490839C163022180F82110136843F6D5
:101ED000F0718B43F0E901142143D0E902452C4312
:101EE00021430469214344692143846921431943FF
:101EF000116000214163012242770177084630BD1D
:101F000008040240F8FFFDBF0000024070B504461F
:101F100090F82000002501280CD0012084F8200032
:101F200094F821600020012E06D084F820000225BC
:101F3000284670BD022070BD022684F82160A0638F
:101F40002068066826F0010606602046FEF700FFBE
:101F5000E06A00282068016802D041F00E0106E026
:101F600021F0040101602068016841F00A0101606C
:101F70002068016841F001010160D9E770B50446AD
:101F800000F010F90546601C02D0044800780444B3
:101F900000F008F9401BA042FAD370BD40000020B9
:101FA0002DE9F84FDFF8C891002409F1040A0AF17D
:101FB000040B23460F270BF1040ED1E00125A540A9
:101FC00006EA0502AA4276D1DFF8A8C14E68A6EB60
:101FD0000C0866452BD00DDC032E34D005DC36B35F
:101FE000012E19D0022E2FD11BE0112E16D0122E49
:101FF0002AD119E0B8F5881F19D006DCB8F5803F62
:1020000015D0B8F5801F1FD111E0B8F5001F0ED014
:10201000B8F5041F18D10AE0CB6815E0CB681B1D8A
:1020200012E0CB6808330FE0CB680C330CE08B6810
:102030002BB1012B4FF0080303D0456104E00423CA
:1020400002E0056100E00023FF2A01D8064601E016
:1020500000F104064FEA840501D9A5F12005D6F860
:10206000008007FA05FC28EA0C0803FA05F548EA9F
:102070000508C6F800804D68ED0070D53E4DAE698C
:1020800046F00106AE61AD6924F0030605F00105D6
:1020900000953A4D06EB050CDCF80850A607360F04
:1020A00007FA06F825EA0805DFF8D480404503D191
:1020B0004FF0000825E052E0DFF8C880404502D12B
:1020C0004FF001081DE0DFF8C080404502D14FF01D
:1020D000020816E0DFF8B480404502D14FF0030853
:1020E0000FE0DFF8AC80404502D14FF0040808E073
:1020F000DFF8A080404502D14FF0050801E04FF025
:10210000060808FA06F848EA0508CCF808804D6881
:10211000D9F80060ED034D4601D5164300E0964323
:102120002E604D68DAF80060AD03554601D51643C0
:1021300000E096432E604D68DBF80060ED025D46DE
:1021400001D5164300E096432E604D68DEF800602E
:10215000AD02754601D5164300E096432E60641C1F
:102160000A681646E2407FF429AFBDE8F88F000008
:102170000004014000001110001002400000014066
:1021800000080140000C0140001001400014014013
:1021900000180140001C01400AB1016170470904A8
:1021A000FBE7000001488068704700004000002005
:1021B000704770472DE9F041016804464A694E684E
:1021C00090F83E000025D743FA050BD4F243D20520
:1021D00008D46FF4807201254A6121680A6842F4CC
:1021E00000420A60B90508D4F143C90505D4226844
:1021F0006FF4007145F002055161790525D4F14372
:10220000C90522D4638D94F83D10226B202808D193
:102210003BB9212910D029290ED0282901D1212A02
:102220000AD022686FF48061516145F004051028DE
:1022300006D0402804D008E0204602F097FA04E0D7
:102240002068016841F400710160380508D4F0434A
:10225000C00505D421686FF4006045F008054861A9
:10226000002D07D0206C284320642046BDE8F041B3
:1022700001F0EEBEBDE8F0812DE9F04702680021D3
:102280005368C66A90F83E4090F83D50102C12D02A
:10229000402C10D0046C002C7DD05469E443A60778
:1022A0007AD4DE43B60577D4036C03B19169BDE8F7
:1022B000F04702F037BA976951694FF42A0CC943C5
:1022C0005FEAC1784FF02A4904D066452AD04E45CE
:1022D00028D010E0DE43B6050DD4C16A614501D1B6
:1022E000012103E0C16A494501D10821C162BDE86D
:1022F000F04702F081B90E0716D4DE43B60513D4B9
:10230000416CC9B21161416B09B1896A29B9816B0C
:10231000002907D0896A002904D00068416841F487
:1023200000614160BDE8F0878E0706D4DE43B60544
:1023300003D4BDE8F04702F0B3B8FE435268760715
:102340004FEA02521DD4002AECDB0A0608D4DA4315
:10235000520505D4490705D5BDE8F04702F044B859
:102360004907DFD4D9438905DCD4212D05D0402C81
:10237000D8D1BDE8F04702F085B9BDE8F04701F0DB
:10238000F1BF002ACEDB4A060BD4DA43520508D44B
:10239000490708D501E00DE00EE0BDE8F04701F087
:1023A0006DBF4907BED4D9438905BBD4BDE8F0470A
:1023B00001F0FABE916970E7E10606D4D9438905B8
:1023C00003D4BDE8F04702F013BA2821212D27D00D
:1023D000292D25D0650655D4DD436D0552D46407FB
:1023E00052D590F83D30448D002C9BD01269446A40
:1023F0002270426A521C4262428D521E4285428DB8
:10240000002A8FD12A2B8DD10268536823F4806370
:1024100053602222026380F83D1000F057FA81E7F2
:10242000250623D4DD436D0520D4640720D590F81C
:102430003D30448D002CF2D0446A24781461426A05
:10244000521C4262428D521E4285428D002AE6D1C4
:10245000292BE4D10268536823F48063536021225E
:10246000026380F83D1000F032FA5BE76107D6D4D2
:10247000D9438905D3D4418D0029D0D0416A097848
:1024800011610AE06107CAD4D9438905C7D4418DD7
:102490000029C4D01169426A1170416A491C416225
:1024A000418D491E41853DE77047000070B504002D
:1024B00025D094F83D00002520B984F83C502046F2
:1024C00000F0BCF9242084F83D002068016821F068
:1024D000010101602068016841F400410160206849
:1024E000016821F40041016000F040FC4D4A616840
:1024F000914201D84C4900E04C49884201D2012068
:1025000070BD4B492368B0FBF1F15E6826F03F06D1
:102510000E435E606368934206D94FF49673594345
:102520004FF47A73B1FBF3F12368491C1E6A26F05D
:102530003F06314319626168914210D84900401E3C
:10254000B0FBF1F2521CC2F30B02042A01D20420A8
:1025500022E0B0FBF1F0401CC0F30B001CE0A268CD
:10256000F2B301EBC10303EB0116431EB3FBF6F319
:102570005B1C43F480431B0549D092B301EBC102BD
:1025800002EB0111401EB0FBF1F0401CC0F30B0048
:1025900040F4804040F400402168CA694CF6FF7363
:1025A0009A431043C861D4E90710014320680268C8
:1025B00022F0C00211430160D4E903010143206805
:1025C000826848F2FF339A4311438160D4E90501E0
:1025D00008432168CA6822F0FF021043C86001E086
:1025E0000EE016E02068016841F0010101602564F9
:1025F000202084F83D00256384F83E50002070BD03
:1026000001EB4106431EB3FBF6F35B1CB3E701206D
:10261000C2E701EB4101401EB0FBF1F0401CC0F3EA
:102620000B00B7E7A086010080841E0000093D0072
:1026300040420F00704770477047000010B50068B7
:10264000084988420DD1084901200870074802F066
:10265000E3FD064802F026FEBDE81040034802F004
:102660003FBE10BD00540040510000205406002021
:1026700000680349884202D102490120087070476E
:102680000054004050000020F8B50024DDE9067633
:10269000009490F83D50202D60D1314D46F2A81C99
:1026A0002D68B5FBFCF505EBC50C0CEB051500958D
:1026B0006D1E009506D00568AD69ED43AD070DD4DC
:1026C000009DF5E740F8304F202141738473016984
:1026D00041F02001016104730120F8BD90F83C50E5
:1026E000012D3BD0012580F83C500568D5F800C08D
:1026F0005FEACC7C05D1D5F800C04CF0010CC5F8E0
:1027000000C00568D5F800C02CF4006CC5F800C006
:10271000222580F83D50402580F83E5004644762F1
:102720004685458D05850F4DC56241648264C3644D
:10273000046501680A6842F480620A6001680A68F8
:1027400042F480720A6080F83C40018D21B100683B
:10275000416841F4E06141600020F8BD0220F8BD0D
:102760004C0000200000FFFFF8B50024DDE90676EC
:10277000009490F83D50202D59D12E4D46F2A81CC2
:102780002D68B5FBFCF505EBC50C0CEB05150095AC
:102790006D1E009506D00568AD69ED43AD070DD4FB
:1027A000009DF5E740F8304F2021417384730169A3
:1027B00041F02001016104730120F8BD90F83C5004
:1027C000012D34D0012580F83C500568D5F800C0B3
:1027D0005FEACC7C05D1D5F800C04CF0010CC5F8FF
:1027E00000C00568D5F800C02CF4006CC5F800C026
:1027F000212580F83D50402580F83E500464476212
:102800004685458D05850C4DC56241648264C3646F
:10281000046501680A6842F480720A6080F83C40EE
:102820000068416841F4E06141600020F8BD022089
:10283000F8BD00004C0000200000FFFF10B586B07E
:102840000021009101910291039100681B49884287
:1028500032D11B4CA06940F00800A061A069694614
:1028600000F0080004904FF4407000901220019096
:10287000032003901348FFF793FB1348416841F08E
:10288000E06141F002014160E06940F40010E06164
:10289000E069002200F40010049001211F2000F0E4
:1028A0009DF81F2000F08CF800220121202000F06C
:1028B00095F8202000F084F806B010BD00540040C8
:1028C00000100240000C01400000014070477047BA
:1028D00002488168027811448160704740000020FE
:1028E000074810B5016841F010010160032000F0B5
:1028F00095F8002000F006F800F03EF8002010BD2A
:102900000020024000B5014687B00022192000F0E7
:1029100065F8192000F054F81348816941F400610A
:102920008161806905A900F400600690684600F0A6
:10293000FDF900F02BFA0D490D4AB0FBF1F10D48FD
:10294000491E0260416040F2E7320021C0E90321E4
:10295000816000F05BFC10B1012007B000BD0548AC
:1029600000F09EFCF9E700000010024040420F001A
:10297000002C01400C0600200F4808B5816941F089
:1029800001018161816901F001010091C16941F09A
:102990008051C161C069002200F0805000900F2179
:1029A000901E00F01BF80548416821F0E06141F0FD
:1029B0000071416008BD00000010024000000140AD
:1029C000002809DB00F01F0201219140400980002E
:1029D00000F1E020C0F8001170470000F0B40E4B89
:1029E0001B680C46C3F30223C3F10705042D00D96D
:1029F0000425191D072901D2002300E0DB1E012652
:102A000006FA05F1491E214099409E40761E164067
:102A10003143F0BC04F07ABA0CED00E0064900F056
:102A2000070208684FF6FF03184040EA0220034AF5
:102A300010430860704700000CED00E00000FA054C
:102A400010B52CA401461DCC86B08DE81D002DA02C
:102A50002D4C00680490002004292FD00BDC0129A4
:102A60002FD0022928D100F091F96168C1F381319A
:102A7000491C49001EE0082920D010291CD161689A
:102A80002268D20118D5C1F38342C9031DF80200A0
:102A900009D5616804AAC1F34041515C1B4AB2FBED
:102AA000F1F1484301E01A4948436168490203D4FF
:102AB00040000321B0FBF1F006B010BD00F076F944
:102AC000FAE7226AC2F30121012903D1920701D555
:102AD000C803F1E7022905D1626A920702D549F6D7
:102AE0004040E9E70329E7D121688903E4D54FF2A3
:102AF0002440E1E702030405060708090A0B0C0D50
:102B00000E0F1010010200000010024000127A00A7
:102B100000093D002DE9F84305460078354CC00713
:102B200054D0E0690026C00008D4E06940F080502D
:102B3000E061E069012600F0805000902E480168B5
:102B4000C90512D40168804641F480710160FFF725
:102B500029FB074605E000BFFFF724FBC01B6428E4
:102B600023D8D8F80000C005F6D5206A10F44070CC
:102B700021D0A98801F4407181421CD0206A1F49EC
:102B8000012220F440700A6000220A602062C0071F
:102B900011D0FFF707FB074641F2883808E000BF75
:102BA000FFF700FBC11B414502D90320BDE8F883B4
:102BB000206A8007F4D5206A696820F440700843D1
:102BC00020621EB1E06920F08050E0612878800723
:102BD00005D56068A96820F4404008436060287803
:102BE000C00605D56068696920F48000084360600C
:102BF0000020DBE700100240007000404004424229
:102C00002DE9F0470F46050061D0434E306800F0D3
:102C10000700B84209D2306820F00700384330601E
:102C2000306800F00700B84251D128683B4C81075A
:102C300012D5400703D5606840F4E06060602878F2
:102C4000000703D5606840F4605060606068A96860
:102C500020F0F000084360602878C00728D068683A
:102C6000012810D02168022810D0890700292EDA07
:102C7000616821F0030101436160FFF793FA804628
:102C800041F288390DE021688903EFE78901EDE71A
:102C9000FFF788FAA0EB0801494502D90320BDE8F7
:102CA000F0876068696800F00C00B0EB810FEFD12D
:102CB000306800F00700B8420BD9306820F00700F8
:102CC00038433060306800F00700B84201D001207E
:102CD000E5E72878400705D56068E96820F4E060FA
:102CE000084360602878000706D56068296920F4E9
:102CF000605040EAC100606000F058F86168084A1E
:102D0000C1F30311515CC8400649086006480068D9
:102D1000FFF7F8FD0020C2E700200240001002404B
:102D20002C8A00084C000020440000200F22026082
:102D30000C4A536803F003034360536803F0F00345
:102D40008360536803F4E063C36052684FF4E06348
:102D500003EAD20202610448006800F0070008603C
:102D6000704700000010024000200240044805495E
:102D700000684968044AC1F30221515CC8407047A9
:102D80004C000020001002403C8A0008044805491D
:102D900000684968044AC1F3C221515CC8407047C9
:102DA0004C000020001002403C8A000812A185B0AF
:102DB0000FC98DE80F0014A0144A006804905168F0
:102DC000134801F00C03042B10D0082B0ED1C1F3D3
:102DD0008343C9031DF803000AD5516804AAC1F34F
:102DE0004041515C0A4A5043B0FBF1F005B07047D6
:102DF00008494843FAE700000203040506070809EA
:102E00000A0B0C0D0E0F1010010200000010024002
:102E100000127A0000093D002DE9F84F040070D03F
:102E20002078C04DC00749D06868C0F381000128F0
:102E300007D06868C0F38100022809D16868C00320
:102E400006D52868800339D560680028E7D035E0CA
:102E50006068B0F5803F0BD010B1B0F5A02F11D055
:102E6000286820F480302860286820F4802002E060
:102E7000286840F480302860606890B1FFF792F9CC
:102E800006460AE0286840F480202860F0E700BF8A
:102E9000FFF788F9801B642873D828688003F7D56A
:102EA0000CE0FFF77FF9064605E000BFFFF77AF96F
:102EB000801B6428F0D828688003F7D420789A4EC5
:102EC00080074FF001094FF0000839D5686810F00D
:102ED0000C0F07D06868C0F38100022809D1686828
:102EE000C00306D42868800714D52069012808D1BA
:102EF00010E02069B0B1C6F80090FFF753F907461B
:102F000005E00AE1FFF74EF9C01B0228C4D8286883
:102F10008007F7D52868616920F0F80040EAC10011
:102F200028600DE0C6F80080FFF73CF9074604E092
:102F3000FFF738F9C01B022823D828688007F7D488
:102F4000207800072CD57948A169D9B1C0F8009044
:102F5000FFF728F9074604E0FFF724F9C01B022811
:102F60000FD8686A8007F7D571484FF4FA510068A6
:102F7000B0FBF1F0009000BF0098411E0091FAD222
:102F80000EE080E0C0F80080FFF70CF9074604E08F
:102F9000FFF708F9C01B022875D8686A8007F7D4C4
:102FA0002078400760D5E8690027C00008D4E869A8
:102FB00040F08050E861E869012700F080500090FF
:102FC0005C480168C90513D40168834641F48071E7
:102FD0000160FFF7E7F8824606E000BFFFF7E2F87E
:102FE000A0EB0A0064284ED8DBF80000C005F5D538
:102FF000E06801280AD008B1052813D0286A20F01B
:1030000001002862286A20F0040002E0286A40F0EB
:1030100001002862E06841F2883B98B1FFF7C2F8EE
:1030200082460BE0286A40F004002862EEE700BF09
:10303000FFF7B8F8A0EB0A0159455AD8286A80076B
:10304000F6D50CE0FFF7AEF8824605E0FFF7AAF8E8
:10305000A0EB0A0159454CD8286A8007F6D41FB165
:10306000E86920F08050E861E06988B36968C1F3DD
:103070008101022944D00228C6F8608004D0FFF7FD
:1030800091F8044638E034E0FFF78CF8074604E096
:10309000FFF788F8C01B02282BD828688001F7D4D6
:1030A000206AB0F5803F05D16868A16820F400303F
:1030B00008436860D4E908010843696821F4741181
:1030C00008436860C6F86090FFF76CF8044606E0B5
:1030D00025E000BFFFF766F8001B022809D8286822
:1030E0008001F7D51BE000BFFFF75CF8001B02284A
:1030F00002D90320BDE8F88F28688001F4D40EE0DF
:103100000128F7D06868226A00F48031914204D126
:10311000616A00F47010884201D00120EAE70020C3
:10312000E8E70000001002400000424280044242F2
:103130004C000020007000407047704710B590F8B8
:103140003C20012A22D0012280F83C20CA688C68E9
:1031500022F4407222434C6822F4806222430C68BD
:1031600022F4006222430C6922F4805222434C690B
:1031700022F400522243C969002322F480420A4308
:1031800001684A6480F83C30002010BD022010BD68
:1031900070B590F83C20012A2CD0012480F83C40E6
:1031A000022280F83D2003685A689D6822F070066C
:1031B0000A6832435A60104B02689A420ED00F4B95
:1031C0009A420BD0B2F1804F08D00D4B9A4205D0F5
:1031D0000C4B9A4202D00C4B9A4204D1496825F01C
:1031E00080031943916080F83D40002180F83C1035
:1031F000084670BD022070BD002C01400034014023
:103200000004004000080040000C004010B504001D
:1032100003D094F83D0010B107E0012010BD00205C
:1032200084F83C00204600F01FF8022084F83D009E
:10323000211D206803F06CFA012084F8460084F810
:103240003E0084F83F0084F8400084F8410084F890
:10325000420084F8430084F8440084F8450084F870
:103260003D00002010BD000008B5006809498842F3
:103270000ED10948C16941F01001C161C06900F077
:103280001000009005480068016841F001010160EC
:1032900008BD000000100040001002408003002024
:1032A00090F83D10012901D001207047022180F8DB
:1032B0003D100168CA6842F00102CA6000680E4908
:1032C00088420ED00D4988420BD0B0F1804F08D013
:1032D0000B49884205D00B49884202D00A498842EE
:1032E00004D1816801F00701062903D0016841F08B
:1032F0000101016000207047002C014000340140B2
:103300000004004000080040000C00402DE9F0419E
:103310000D46040003D094F83D0018B108E00120E8
:10332000BDE8F081002084F83C00204600F040F821
:10333000022084F83D002068816844F2070291432E
:103340008160211D206803F0E3F92268906891698B
:10335000166A2B68AF69034340F20330814341EAA8
:103360000721A868EF6908434FF6FC418843E968E4
:1033700040EA0720014328692F6A000140EA07302C
:10338000084369686D6926F0220646EA0515294357
:1033900093602268906154F8460B0162012004F8A2
:1033A0001F09E0752076E0762077A0750020B7E74A
:1033B00030B585B000240094019402940394006811
:1033C0004F49504B504DB0F1804F23D04F4CC0224D
:1033D000A04256D1C86940F00200C861C86900F037
:1033E00002000490886940F0040088618869694699
:1033F00000F00400049000921846FEF7D1FD002270
:1034000003211D20FFF7EAFA5FF01D00FFF7D8FA4D
:1034100005B030BDC86940F00100C861C86900F05E
:1034200001000490886940F004008861886900F018
:1034300004000490886940F0080088618869694642
:1034400000F0080004904FF4004000901846FEF78A
:10345000A7FD0820CDE90004694628460294FEF73E
:103460009FFD2B48416821F4407141F0E06141F437
:1034700080714160002203211C20FFF7AFFA1C205D
:10348000C4E7244CA0421BD1C86940F00400C861C5
:10349000C86900F004000490886940F00800886161
:1034A0008869694600F00800049000922846FEF7FB
:1034B00077FD002203211E20FFF790FA1E20A5E7CA
:1034C000154A9042A4D1C86940F00800C861C86993
:1034D00000F008000490886940F004008861886961
:1034E000694600F004000490032000901846FEF79F
:1034F00057FD002203213220FFF770FA322085E7C2
:103500000010024000080140000C0140000400408F
:103510000000014000080040000C004070B590F829
:103520003E60044690F83F5090F8423090F84320B7
:10353000022021B104290ED0012E1BD114E0012E4E
:1035400018D1012B16D184F83E0084F842000122E4
:103550000021206820E0012D0CD1012A0AD184F835
:103560003F0084F8430014E0012D03D1012B01D169
:10357000012A01D0012070BD84F83E0084F83F008C
:1035800084F8420084F8430001220021206803F0FF
:1035900005F901220421206803F000F92068016880
:1035A00041F001010160002070BD704770B5044614
:1035B000006801694FF00005C943890715D4C16847
:1035C000C943890711D4E91E0161012020772068D1
:1035D00080698007204602D0FFF7E7FF04E000F093
:1035E000D1F8204600F074F9257720680169C943B5
:1035F000490717D4C168C943490713D46FF00401C0
:103600000161022020772068806910F4407F204605
:1036100002D0FFF7CAFF04E000F0B4F8204600F043
:1036200057F9257720680169C943090716D4C1688D
:10363000C943090712D46FF0080101610420207703
:103640002068C0698007204602D0FFF7AEFF04E083
:1036500000F098F8204600F03BF9257720680169D2
:10366000C943C90617D4C168C943C90613D46FF04A
:1036700010010161082020772068C06910F4407FA4
:10368000204602D0FFF791FF04E000F07BF82046CF
:1036900000F01EF9257720680169C943C90708D1E0
:1036A000C168C943C90704D1891E0161204600F0E1
:1036B0006BF920680169C943090609D4C168C94387
:1036C000090605D46FF0800101612046FFF734FD43
:1036D00020680169C943490609D4C168C94349063C
:1036E00005D46FF040010161204600F075F92068B3
:1036F0000169C94389060BD4C168C943890607D447
:103700006FF0200101612046BDE87040FFF715BD54
:1037100070BD000000B585B00021009101910291BB
:10372000039100681349884222D11348816941F00E
:10373000100181618069694600F0100004904FF427
:10374000707000900220019003900C48FEF728FC56
:1037500000210B4800F0BEF80421094800F0BAF837
:103760000821074800F0B6F80C21054800F0B2F82F
:1037700005B000BD003401400010024000100140BF
:10378000C8030020704770B5044690F83C000D4611
:1037900001280AD0012084F83C0042B1042A18D044
:1037A000082A2AD00C2A4DD139E0022070BD2068A9
:1037B00003F002F82068816941F008018161206806
:1037C000816921F004018161206881692A691143BE
:1037D00011E0206803F020F82068816941F400615D
:1037E00081612068816921F480618161206881693B
:1037F0002A6941EA0221816124E0206803F042F84D
:103800002068C16941F00801C1612068C16921F0E7
:103810000401C1612068C1692A69114311E020686F
:1038200003F064F82068C16941F40061C161206857
:10383000C16921F48061C1612068C1692A6941EAD6
:103840000221C161002084F83C0070BD10B5040065
:1038500003D094F83D0010B107E0012010BD002016
:1038600084F83C00204600F01FF8022084F83D0058
:10387000211D206802F04CFF012084F8460084F8E6
:103880003E0084F83F0084F8400084F8410084F84A
:10389000420084F8430084F8440084F8450084F82A
:1038A0003D00002010BD000008B5006806498842B0
:1038B00008D10648816941F400518161806900F4B2
:1038C0000050009008BD000000340140001002408C
:1038D0007047000010B50446022249B104290ED0F9
:1038E000082913D094F84100012816D0012010BDFA
:1038F00094F83E000128F9D184F83E200FE094F8B6
:103900003F000128F2D184F83F2008E094F84000FD
:103910000128EBD184F8402001E084F84120012205
:10392000206802F03BFF13492068134A884201D007
:10393000904203D1436C43F40043436420688842BF
:103940000DD090420BD0B0F1804F08D00B49884287
:1039500005D00B49884202D00A49884204D18168C7
:1039600001F00701062903D0016841F0010101605F
:10397000002010BD002C0140003401400004004034
:1039800000080040000C004070B5044600680E4D71
:10399000A84201D1FEF79CFF2068A84201D102F0A5
:1039A00091FE2068B0F1804F08D00849884205D0C8
:1039B0000749884202D00749884204D12046BDE821
:1039C000704003F067BA70BD002C01400004004055
:1039D00000080040000C00407047704710B50446D6
:1039E0000068416994F83D20C1F3C011212A0BD130
:1039F00051B1416921F080014161606B08B1FEF76E
:103A000063F8204603F045F82068416994F83E20A9
:103A1000C1F38011222A0BD151B1416921F040013B
:103A20004161A06B08B1FEF74FF8204603F019F88A
:103A3000002010BD01680A680A68D243D20703D18A
:103A40004A686FF001020A6001680A68D24392076F
:103A500003D44A686FF002020A6001680A68D24320
:103A6000520703D44A686FF004020A6000680168D4
:103A7000C943090703D4C1686FF0080101607047AA
:103A8000F8B5026804461068D168536910F00F0F4A
:103A90004FF0000553D003F0010601F4907737434F
:103AA0005FD0C20705D0CA0503D5226C42F00102DF
:103AB0002264420705D5DA0703D0226C42F00202E5
:103AC0002264820705D5DA0703D0226C42F0040293
:103AD0002264020707D501F02002324303D0226C92
:103AE00042F008022264226C002A34D0800604D5F9
:103AF000880602D5204602F0D5FF20684069216C77
:103B0000C0F38010090700D430B3204602F0A9FFAB
:103B10002068416949061BD5416921F04001416196
:103B2000A06BA8B158494163A06BFDF7F1FF0028D5
:103B300011D0A06B416B01B0BDE8F040084783068F
:103B40000FD58B060DD52046BDE8F84002F0AABF80
:103B50002046FFF76FFFF8BD2046FFF76BFF256497
:103B6000F8BD266B2023012E52D1C60650D5CE06B5
:103B70004ED5106850680090506940062AD5A16B58
:103B8000086840680004000CEAD0A68D8642E7D998
:103B9000E0858869202818D0D06820F48070D06033
:103BA0002068416921F0010141612068416921F0EB
:103BB0004001416184F83E3025632068C16821F0EE
:103BC0001001C160A06BFDF77FFFA08DE18D401A51
:103BD00081B219E0A08DE18D401A81B2E08D0028FC
:103BE000BED00029BCD0D06820F49070D06020688E
:103BF000426922F00102426184F83E302563206868
:103C0000C26822F01002C2602046FFF7E6FEF8BD4F
:103C100005062BD50D0629D594F83D002128F6D1AF
:103C2000A068B0F5805F01D12069B0B1206A411C65
:103C30002162216800784860E08C401E0004000C7E
:103C4000E084E4D12068C16821F08001C16020686F
:103C5000C16841F04001C160F8BD206A0088C0F32E
:103C600008005060206A801C2062E5E74006F3D51A
:103C70004806F1D5D168204621F04001D16084F892
:103C80003D3000F077F9F8BD5D69000870B50400BB
:103C900004D094F83D00002510B106E0012070BD6D
:103CA00084F83C50204600F023F8242084F83D009E
:103CB0002068C16821F40051C160204602F04EFF27
:103CC0002068016921F4904101612068416921F077
:103CD0002A0141612068C16841F40051C160256436
:103CE000202084F83D0084F83E00002070BD0000D4
:103CF0002DE9F04186B000250095019502950395C8
:103D00000446684F036868480221032280264FF06A
:103D10001008BB4264D1C36943F40023C361C36983
:103D200003F400230493836943F0100383618069E3
:103D30005E4F00F0100004904802CDE900010392AC
:103D400069463846FEF72CF93001CDE90005694691
:103D500038460295FEF724F9564F5548C7E9000545
:103D6000C7E902563D617D61BD613846FD61FEF7E0
:103D70008FF808B1FDF7B0F9A7637C624D4F4C484E
:103D800044372830C7E902563D617D61BD61FD6160
:103D9000C7E900083846FEF77BF808B1FDF79CF943
:103DA00067630022022134207C62FEF717FE342074
:103DB000FEF706FE002201213A20FEF70FFE3A2010
:103DC000FEF7FEFD002201213B20FEF707FE3B200F
:103DD000FEF7F6FD204602F039FB06B0BDE8F081A3
:103DE000354FBB42F9D1C36943F40033C361C369A2
:103DF00003F400330493836943F00403836180690F
:103E00002E4F00F0040004900420CDE9000103923D
:103E100069463846FEF7C4F80820CDE90005694632
:103E200038460295FEF7BCF8224F25488837C7E987
:103E30000005C7E902563D617D61BD613846FD61FF
:103E4000FEF726F808B1FDF747F9A7637C62194F22
:103E50001B48CC371430C7E902563D617D61BD6116
:103E6000FD61C7E900083846FEF712F808B1FDF712
:103E700033F967630022032126207C62FEF7AEFD42
:103E80002620FEF79DFD0B496422EC3901F1A800C4
:103E900000F018F8074844380068C16841F0100184
:103EA000C1609AE7004C0040001002400010014041
:103EB00030040240FC04002000440040000801409F
:103EC0006C00024090F83E30202B0ED159B152B117
:103ED00090F83C30012B08D0012380F83C300023BF
:103EE000036302F097BE01207047022070477047BD
:103EF0007047000070B5044690F83D00202830D18E
:103F000069B362B394F83C0001282AD0012084F8F8
:103F10003C002162A284E28400252564212084F8EB
:103F20003D00636B10489862636B1048D862636B06
:103F30000F481863606B134645632668606B321D3B
:103F4000FDF7E4FF21686FF04000086084F83C5002
:103F50002068416941F080014161002070BD01206D
:103F600070BD022070BD00002B6A0008596A00086D
:103F70006D69000870477047FEE700000148FEF7D2
:103F800019B900000C0200200148FEF775B90000C5
:103F90000C02002038B5406A002190F83D202B4BE0
:103FA00046F2A8141B68B3FBF4F3C3EBC30303EBA3
:103FB000830300933BB15B1E009303681B689B0562
:103FC00005D5009BF6E7036C43F020030364436BC5
:103FD00003B19962836B03B1996203681C6824F48E
:103FE00080641C604185436B03B15963836B03B1EB
:103FF000596303681C6824F001041C6090F83D407C
:104000002023602C0BD0282434EA02020FD080F841
:104010003D3080F83E1000BFFEF746FA38BD80F80C
:104020003D3080F83E100164FEF7C2F838BD0268EA
:10403000136843F0010313600268136843F480635C
:104040001360016380F83D40E6E700004C0000206B
:1040500070B5044690F83D0094F83E10102901D048
:10406000402906D1222804D121680A6822F400627E
:104070000A60282131EA00024FF000054FF02006C7
:1040800026D021684968090505D4602803D084F842
:104090003D6084F83E50256320684168090537D5A6
:1040A000416821F400614160606B3D4990F8212036
:1040B000012A11D04163606BFDF72AFD38B32068F7
:1040C000016821F00101016084F83D60606B1CE033
:1040D000256384F83D10DFE7A06B4163A06BFDF71B
:1040E00017FDA0B120684169C943490605D400699C
:1040F000616A0870606A401C60622068016821F093
:104100000101016084F83D60A06B416B884710E0BD
:1041100094F83D10602910D04169C943490605D47F
:104120000069616A0870606A401C60622046FEF7A0
:10413000BBF9206CC1071CD115E084F83D602564F3
:104140004169C943490605D40069616A0870606A1B
:10415000401C60622068016821F001010160204676
:10416000FEF726F8E5E7810703D4410701D40007ED
:1041700004D52068416821F4E061416094F83D0075
:10418000216C49070BD5282809D10648E062256330
:1041900084F83D6084F83E502046FEF74BFA70BD2F
:1041A000953F00080000FFFF10B5C26A438D01680B
:1041B000042B06D0438D032B08D0438D022B1DD03A
:1041C00012E04A6822F480624A600CE04B6823F4F3
:1041D00080634B60042A06D0022A04D001680A6872
:1041E00022F480620A6001680969426A1170416ABA
:1041F000491C4162418D491E418510BD012A30D0C4
:10420000102A2ED0042A30D0022A2ED00A6842F476
:1042100000720A6001680969426A1170416A491CAA
:104220004162428D521E4285026812690A70416ADB
:10423000491C4162418D491E418501684A6822F44A
:1042400040724A60202180F83D1090F83E20002105
:10425000402A80F83E100CD012210163FEF7EBF9E2
:1042600010BD0A6822F48062D3E70A6842F48062D3
:10427000CFE70163FEF7E2F910BD000038B590F812
:104280003D10222914D1418D032912D901680969F1
:10429000426A1170416A491C4162418D491E418543
:1042A000418D032904D10068416821F48061416097
:1042B00038BDC26A022AFBD0012901D00029F7D1FA
:1042C000274946F2A81300220968B1FBF3F101EB7C
:1042D0008101009101682023009C641E009422D07B
:1042E0000C68A405F8D40C6824F480640C600168A0
:1042F0004C6824F4E0644C6001680969446A2170E8
:10430000416A491C4162418D491E418580F83D301A
:1043100090F83E1080F83E2040291DD01221016304
:10432000FEF789F938BD046C44F0200404644C683D
:1043300024F4E0644C6001680969446A2170416AB0
:10434000491C4162418D491E418580F83D3080F80D
:104350003E20FEF7A9F838BD0263FEF76FF938BDBD
:104360004C00002010B5C26A90F83D1021290BD1F5
:10437000418D51B1416A026809781161416A491C55
:104380004162418D491E418510BD20230021082A2C
:1043900013D0202A11D012F5803F0ED00268546845
:1043A00024F4E06454601122026380F83E1080F827
:1043B0003D3000BFFEF740F910BD0268546824F498
:1043C000E06454600268146844F40074146001638B
:1043D00080F83D3090F83E2080F83E10402AE9D128
:1043E000FEF746F910BD000010B590F83D1090F8AA
:1043F0003E30C26A048DB4B1212903D0402B11D1C3
:1044000022290FD1418DE1B390F83E10402942D0CE
:10441000416A026809781161416A491C4162418D13
:10442000491E418510BD2129E8D120230021082AF9
:1044300013D0202A11D012F5803F0ED002685468A4
:1044400024F4E06454601122026380F83E1080F886
:104450003D3000BFFEF7F0F810BD0268546824F448
:10446000E06454600268146844F4007414600163EA
:1044700080F83D3090F83E2080F83E10402AE9D187
:1044800000E002E0FEF7F4F810BD0068416821F496
:104490008061416010BDBDE8104000F0F3B800003D
:1044A00078B590F83E50C26A046B90F83D600023E6
:1044B0000168222E73D1066D0EB9402D6FD0056DA7
:1044C0001DB90569B5F5404F1BD0458D95B3468D97
:1044D000484D012E20D0448D022C4DD00C6844F460
:1044E00080640C6001684C68240579D5AA4273D0B9
:1044F000012A71D0082A6FD0102A6DD0202A6BD0E3
:104500006EE04A698A6900920A6842F480720A6021
:10451000016D491C016578BDAA4214D10A6822F4D4
:1045200080620A6001684A68120504D50A6822F4AC
:10453000806217E0FFE74A698A6900920A6842F4DC
:1045400000720A6050E0082A10D0202A0ED0122CE7
:104550000AD0042A03D0022A01D0102AE6D10A6820
:1045600042F480620A603BE0012ADFD00A6822F44C
:1045700080620A600168DEE7042A11D0022A0FD0A7
:10458000102A0DD00C6844F400640C6001684C697A
:104590008C6900940C6824F480640C6008E025E0C9
:1045A0000C6844F480640C6001684C69896900916E
:1045B00001684C68240517D5AA4207D0012A05D006
:1045C000082A03D0102A01D0202A0DD14A6842F4CB
:1045D00080524A6008E0FFE74A6842F480524A602D
:1045E00001684A6989690091036578BD48698869ED
:1045F000009078BD0000FFFF90F83E10402910D0D9
:104600000169B1F5804F19D0016DA9B3016D012980
:1046100010D1416C5FF0F10201F4407142EAD11116
:1046200006E0016D0029416C05D0C9B241F00101DD
:1046300000680161704701F0FE01F9E790F83D1054
:104640002129416C09D0C9B241F001010268116110
:10465000416B29B1896A49B902E001F0FE01F5E731
:10466000816B0029E6D0896A0029E3D0006841689F
:1046700041F4006141607047FFE7416CF02201F4B2
:104680004071CBE710B590F83D10026D22B3026D7A
:10469000012A2FD0026D022A1DD122292FD0428D4E
:1046A0000AB1212933D0428D002A14D1212912D1F7
:1046B00001684A6822F4E0624A6001680A6842F4CC
:1046C00000720A6000210163202280F83D2080F8FA
:1046D0003E10FDF7CDFF10BDC16C0129816C02D0E9
:1046E000C1F3072108E00268C9B21161016D891C9C
:1046F000016510BD816CC9B20268116104E00168F6
:104700000A6842F480720A60016D491CF0E7416A50
:10471000026809781161416A491C4162418D491E54
:10472000418510BD38B50C4690F83D200021282564
:10473000954302680B4605D051699169009180F854
:104740003C3038BD556825F480655560E243540718
:1047500000D50121120601D5828900E0028B80F884
:104760003C3092B2FDF725FD38BD00002DE9F04147
:1047700090F83D40C26A002320261C4F01686FF468
:104780008065082A01D0202A01D1282C04D0212CB0
:1047900016D04D61BDE8F081C7624A6822F4E0623C
:1047A0004A6001684D6101680A6822F480620A600B
:1047B000036380F83D6080F83E30FDF73BFFE9E79A
:1047C000C7622122026380F83D6080F83E304A686B
:1047D00022F4E0624A6001684D6101680A6822F4CF
:1047E00080620A60FEF773F8D4E700000000FFFF64
:1047F000F8B590F83D6004460068416821F4E06136
:1048000041602068002541690091016841F0010183
:1048100001602068016821F48061016020684168BE
:10482000090520D5474F222E48D02A2E46D0616B4D
:10483000096849686185618D19B1216C41F00401F5
:104840002164416821F400614160606BFDF7F8F973
:10485000012808D0606B4763606BFDF759F910B110
:10486000606B416B8847608D08B320684169C9431C
:10487000490708D40069616A0870606A401C606278
:10488000608D401E608520684169C943490608D48F
:104890000069616A0870606A401C6062608D401E39
:1048A0006085608D18B1206C40F004002064206C9D
:1048B00000B32046BDE8F840FFF7CABBA16B09680A
:1048C00049686185618D19B1216C41F00401216451
:1048D000416821F400614160A06BFDF7B1F9012846
:1048E000C1D0A06B4763A06BFDF712F90028BAD0C6
:1048F000A06BB6E72A2E06D12563282084F83D0058
:104900002046FDF7E3FF94F83D10202028290DD024
:10491000216B222901D0222E07D1256384F83D0086
:1049200084F83E502046FDF7D1FFF8BD0649E1620C
:10493000256384F83D0084F83E502046FDF77AFE5A
:10494000F8BD0000953F00080000FFFF0A490A6912
:1049500002604A6942608A698260CA69C2600A6A02
:104960000261496A416105498A68C2610A688261D7
:10497000C96801627047000054060020FC0700204F
:1049800008B503F0E7FA03F005FB0B4C03F0AEFEAD
:104990000090012001F002FB0848FFF7D7FF206BD1
:1049A00020B100230122054903F0E0FC0321684601
:1049B00002F050FFEAE7000008000020E8010020B4
:1049C0002DE9FF4F87B09946DDE914ABFE4CE16855
:1049D0000D462846FBF7A2FC0390216928460E46A7
:1049E000FBF79CFC0290616928460F46FBF796FC9A
:1049F000314606900846FBF791FC0190A1693046CC
:104A00000D46FBF78BFC064639460846FBF786FC4D
:104A1000059029463846FBF781FC29460090084658
:104A2000FBF77CFC0490FCF77FFBA080A0886188EA
:104A3000E64D884208D260884FF6FF71081AA188B7
:104A40000844FBF778FE04E0A0886188401AFBF771
:104A500069FE2946FBF794FC8046A0886080594691
:104A60000846FBF75BFC074651460846FBF756FC39
:104A7000054649460846FBF751FC2946FBF7F6FB7D
:104A80003946FBF7F3FB02F05DFE0546014648465A
:104A9000FBF744FC0A9029465046FBF73FFC149074
:104AA00029465846FBF73AFC834630460699FBF701
:104AB0002FFC0121FBF7A2FC824600990298FBF72C
:104AC000D5FB0121FBF79AFC814601990398FBF77E
:104AD0001FFC0599FBF71CFC0499FBF7C7FB054677
:104AE00049465846FBF71AFC064629461498FBF738
:104AF00015FC3146FBF70CFC074629460A98FBF7E4
:104B00000DFC054651465846FBF708FC2946FBF7C5
:104B1000FFFB064651461498FBF700FC0546494644
:104B20000A98FBF7FBFB2946FBF7F2FB054617F05B
:104B3000FF4F43D016F0FF4F40D015F0FF4F3DD050
:104B4000DFF88C9238464946FBF7E8FB4146FBF715
:104B5000E5FBE169FBF78AFB8346E06149463046A5
:104B6000FBF7DCFB4146FBF7D9FB216AFBF77EFB39
:104B70008246206249462846FBF7D0FB4146FBF7B8
:104B8000CDFB616AFBF772FB81466062394607988C
:104B9000FBF76CFB5946FBF769FB07903146089819
:104BA000FBF764FB5146FBF761FB08902946099827
:104BB000FBF75CFB4946FBF759FB0990A069099993
:104BC0000290FBF7ABFB0746606908990190FBF781
:104BD000A5FB2669054686F000400799FBF79EFB7A
:104BE0002946FBF795FB3946FBF792FB4146FBF75D
:104BF00095FBE1680091FBF739FB0546089902989F
:104C0000FBF78CFB814609990198FBF787FB074668
:104C100000990798FBF782FB3946FBF727FB4946CB
:104C2000FBF776FB4146FBF779FB3146FBF71EFBB2
:104C3000814602990798FBF771FB82463046099935
:104C4000FBF76CFB074608990098FBF767FB3946B2
:104C5000FBF75EFB5146FBF709FB4146FBF75EFBAA
:104C60000199FBF703FB834601990798FBF756FB75
:104C7000074630460899FBF751FB0646099900980C
:104C8000FBF74CFB3146FBF7F1FA3946FBF740FBEB
:104C90004146FBF743FB0299FBF7E8FA064601465B
:104CA000FBF73CFB824659460846FBF737FB80463C
:104CB00049460846FBF732FB074629460846FBF7FC
:104CC0002DFB3946FBF7D2FA4146FBF7CFFA5146A6
:104CD000FBF7CCFA02F036FD074601462846FBF703
:104CE0001DFB8246E06039464846FBF717FB8046CD
:104CF000206139465846FBF711FB81466061394611
:104D00003046FBF70BFB06460121A061FBF776FB63
:104D10003146FBF703FB05464FF0404B59464846EA
:104D2000FBF7FCFA4946FBF7F9FA2946FBF7F0FADC
:104D30004FF07E51FBF79AFAFBF778FD07460D46D8
:104D400001215046FBF75AFB3146FBF7E7FA0646CE
:104D500001214046FBF752FB4946FBF7DFFA31469B
:104D6000FBF784FAFBF762FD3A462B4602F0A4FB00
:104D7000184F4FF0C0494A463B46FBF7F2FBFBF7A2
:104D800068FD154D0121A860E068FBF737FB6169FC
:104D9000FBF7C4FA064659462069FBF7BFFAA1693A
:104DA000FBF7BCFA3146FBF761FAFBF73FFD02F077
:104DB0003BF94A463B46FBF7D4FBFBF74AFD28602C
:104DC00060690121064609E0880000200024F449BA
:104DD0000AD7233C94A94CC00C080020FBF70EFB1B
:104DE00082463146FBF79AFA0646206959468046C4
:104DF000FBF794FA4146FBF791FA3146FBF788FA44
:104E00004FF07E51FBF732FAFBF710FD07460E46D6
:104E10000121E068FBF7F2FA4146FBF77FFA804692
:104E20005046A169FBF77AFA4146FBF71FFAFBF7F8
:104E3000FDFC3A46334602F03FFB4A46064BFBF781
:104E400090FBFBF706FD68602968C4E90A10A868B2
:104E500020630BB0BDE8F08F94A94C402DE9F041E0
:104E600004461046FBF754FAE06025690646012126
:104E70002846FBF7C3FA3146FBF74DFA6169FBF7A9
:104E8000F5F9A168FBF74AFA074631466068FBF777
:104E900045FA804629463046FBF73AFA2168FBF787
:104EA0003DFA4146FBF7E2F93946FBF7DFF9C4E981
:104EB0000465BDE8F08100002DE9FF5F1D46DDE9D6
:104EC0000E83DFF874B099462B46DBE91667DBE901
:104ED0001801FBF79FFA0D4604464B464246FBF786
:104EE00099FA02460B4620462946FBF7ACFB814661
:104EF0008A46DDE9000132463B46FBF72CFB4A4679
:104F00005346FBF72EFB32463B46FBF783FA064639
:104F10000F464A46534600200849FBF71CFB224631
:104F20002B46FBF71EFBCBE91667CBE9180104B053
:104F300030463946BDE8F09F880000200000F03F71
:104F40002DE9FF5F1D46DDE90E83DFF874B0994659
:104F50002B46DBE91A67DBE91C01FBF75BFA0D4620
:104F600004464B464246FBF755FA02460B4620469E
:104F70002946FBF768FB81468A46DDE90001324697
:104F80003B46FBF7E8FA4A465346FBF7EAFA324655
:104F90003B46FBF73FFA06460F464A46534600207B
:104FA0000849FBF7D8FA22462B46FBF7DAFACBE999
:104FB0001A67CBE91C0104B030463946BDE8F09FC2
:104FC000880000200000F03F2DE9FF5FDFF87CB093
:104FD0001D46DDE90E73DBE91E680BF1800A994678
:104FE000DAE900012B46FBF715FA04460D463A466E
:104FF0004B46FBF70FFA02460B4620462946FBF7C5
:1050000022FB0F468146DDE9000132464346FBF7AD
:10501000A2FA4A463B46FBF7A4FA32464346FBF760
:10502000F9F9064688464A463B4600200849FBF700
:1050300092FA22462B46FBF794FACAE90001CBE923
:105040001E6804B030464146BDE8F09F880000204D
:105050000000F03F2DE9F04104460068134D294659
:10506000FBF75CF90746A0682946FBF757F910499A
:10507000FBF754F90F4E054631463846FBF780F9E9
:10508000074631462846FBF77BF905460146384678
:10509000FBF73EF90646E06029463846FBF7E6F89E
:1050A00020616661A061BDE8F081000000007042EF
:1050B000EB51783E5724FE3E70B501690446C06846
:1050C000FBF726F96169FBF7D1F8A169FBF720F935
:1050D0006FF001052946FBF791F9104E3146FBF7B9
:1050E0004FF90F49FBF71AF920602169E068FBF7D7
:1050F000BDF86169FBF7BAF8A169FBF7B7F8294673
:10510000FBF77CF93146FBF73BF90649FBF706F95B
:105110000549FBF735F9A06070BD00000000704242
:105120005724FEBE5724FE3EEB51783E016000211D
:1051300041608160704770B5016804464FF07E5051
:10514000FBF7E6F86168FBF7E9F8A1680546206817
:10515000FBF7E4F82946FBF789F86060606870BDEA
:105160002DE9FE4F04466420FCF708FF284E4FF05F
:10517000020A8DF808A00025357001270DF10808F6
:10518000CDE900873B466B22D1212248FDF7ECFA9E
:1051900030780028FCD018208DF808003570CDE953
:1051A000008701231B22D1211A48FDF7DDFA307850
:1051B0000028FCD08DF808503570B94647460123C9
:1051C0001C22D1211348CDE90089FDF7CDFA3078B2
:1051D0000028FCD08DF808A03570CDE900790123B6
:1051E0006B22D1210B48FDF7BFFA30780028FCD0A4
:1051F00025806580A580E58025816581A581256163
:105200006561A561E56125626562E563BDE8FE8FC4
:10521000500000200C02002010B5044690F8410018
:1052200094F8401000EB012024F8300BE07CA17CC6
:1052300000EB012024F82E0C607D217D00EB012085
:1052400024F82C0CE07DA17D00EB012024F82A0C31
:1052500034F92A0CFBF766FA0F49FBF791F8FBF7D4
:10526000E5FA0E4A0E4BFBF7D5F8FBF7F2FAE060D1
:10527000607E217E00EB012024F8280CE07EA17ED8
:1052800000EB012024F8260C607F217F00EB012039
:1052900024F8240C10BD00000000AA43A4703D0AAD
:1052A000D743424070B50446B0F90000FBF73AFA24
:1052B0000A4D2946FBF764F82061B4F90200FBF7B8
:1052C00031FA2946FBF75CF86061B4F90400FBF79A
:1052D00029FA2946FBF754F8A06170BD00CCCC44F4
:1052E00070B50446B0F90800FBF71CFA0A4D2946D0
:1052F000FBF746F8E061B4F90A00FBF713FA294618
:10530000FBF73EF82062B4F90C00FBF70BFA2946D4
:10531000FBF736F8606270BD14AE6A44FEB5002437
:105320001748009401941549029401608915816021
:105330000125057304754FF46021C1610226E9025D
:1053400006614160FCF702FA08B1FBF7C5FE0420D4
:10535000CDE90005694602940948FCF775F908B1E2
:10536000FBF7BAFE1120CDE9000669460448FCF7B8
:105370006BF9002801D0FBF7AFFEFEBD0024014011
:1053800074010020194808B5416941F002014161EA
:10539000416901F002010091416941F0010141615F
:1053A0004069002200F00100009005211020FDF767
:1053B00015FB1020FDF704FB002205211120FDF74D
:1053C0000DFB1120FDF7FCFA002205213A20FDF724
:1053D00005FB3A20FDF7F4FA002205213B20FDF7FA
:1053E000FDFABDE808403B20FDF7EABA0010024094
:1053F00010B59AB000221C21012002F049FF264C72
:1054000000221C21A062012002F042FFE062002283
:105410000C21012002F03CFF6063002224210120C6
:1054200002F036FF206314221C496846FAF7FAFEA0
:105430000021684602F01AFA1849606114221431FA
:1054400005A8FAF7EFFE002105A802F00FFA1349AC
:10545000A061142228310AA8FAF7E4FE00210AA864
:1054600002F004FA0D49E06114223C310FA8FAF76A
:10547000D9FE00210FA802F0F9F908492062142290
:10548000503114A8FAF7CEFE002114A802F0EEF96C
:1054900060621AB010BD000008000020908900086A
:1054A000F0B585B000242748009401940294039439
:1054B000816941F010018161816901F0100104915D
:1054C000816941F020018161816901F0200104912D
:1054D000816941F004018161816901F00401049155
:1054E000816941F0080181618069174E00F0080070
:1054F0004EF230050490002229463046FCF74CFE5F
:10550000124F002203213846FCF746FE0095012584
:10551000CDE901540224694630460394FCF740FD6E
:1055200010200326CDE9000669460948FCF738FD3E
:105530000096CDE90154694638460394FCF730FDE6
:1055400005B0F0BD0010024000100140000C014009
:10555000000801400D4810B50B4901600C4941603D
:1055600000214FF480428160C0E9031241618161F2
:10557000C1610162FCF79AFF002803D0BDE810402A
:10558000FBF7AABD10BD0000005400400C02002033
:10559000A086010010B58CB024216846FAF75BFEA6
:1055A0000024164809944FF080410A94C0E9001481
:1055B0004FF6FF71C0E90241046184610320CDE927
:1055C00000040120CDE902040F210491CDE905403A
:1055D000CDE9074169460948FDF798FE08B1FBF798
:1055E0007BFD099409A905480A94FDF7D1FD00281F
:1055F00001D0FBF771FD0CB010BD0000600200206F
:1056000010B58CB024216846FAF725FE0024164810
:10561000099414490A94C0E900144FF6FF71C0E9D7
:105620000241046184610320CDE900040120CDE939
:1056300002040F210491CDE90540CDE907416946F7
:105640000948FDF763FE08B1FBF746FD099409A977
:1056500005480A94FDF79CFD002801D0FBF73CFDAE
:105660000CB010BD00040040A802002010B58CB0A2
:1056700024216846FAF7EFFD0024164809941449DE
:105680000A94C0E900144FF6FF71C0E902410461B9
:1056900084610320CDE900040120CDE902040F213B
:1056A0000491CDE90540CDE9074169460948FDF778
:1056B0002DFE08B1FBF710FD099409A905480A94CD
:1056C000FDF766FD002801D0FBF706FD0CB010BD0C
:1056D00000080040F002002010B58CB0242168467C
:1056E000FAF7B9FD00241648099414490A94C0E950
:1056F00000144FF6FF71C0E9024104618461032088
:10570000CDE900040120CDE902040F210491CDE987
:105710000540CDE9074169460948FDF7F7FD08B1A5
:10572000FBF7DAFC099409A905480A94FDF730FD56
:10573000002801D0FBF7D0FC0CB010BD000C0040DD
:10574000380300201CB500240E4800940C49019435
:1057500001604721C0E901144FF6FF718461C16007
:10576000FDF754FD08B1FBF7B7FC00946946054806
:105770000194FDF70DFD002801D0FBF7ADFC1CBD29
:10578000001000408003002010B592B000240F9458
:105790001C2168461094FAF75EFD202107A8FAF74D
:1057A0005AFD2D482B4901600221C0E9011440F245
:1057B000CF71C0E9031444618461FEF747F808B172
:1057C000FBF78AFC0F940FA923481094FDF7E0FC27
:1057D00008B1FBF781FC602000904FF4FA60CDE93E
:1057E0000104039404940594002269461A4806941F
:1057F000FDF7C9FF08B1FBF76FFC042269461648A4
:10580000FDF7C1FF08B1FBF767FC082269461248A3
:10581000FDF7B9FF08B1FBF75FFC0C2269460E48A3
:10582000FDF7B1FF08B1FBF757FC07940894099402
:105830004FF400500A94CDE90B4007A906480E9496
:10584000FDF77CFC08B1FBF747FC0348FDF762FF5E
:1058500012B010BD00340140C80300200E4810B53E
:105860000C4901600D4941604FF480518160002175
:105870004FF48062C0E903120C22C0E90521C16126
:10588000FEF704FA002803D0BDE81040FBF724BC63
:1058900010BD0000004C004074040020A0860100F0
:1058A0000C4810B50A4901604FF461314160002194
:1058B00081600C22C160C0E904128161C161FEF700
:1058C000E5F9002803D0BDE81040FBF705BC10BD8A
:1058D00000440040B8040020FEE7000010B5044674
:1058E000012210210448FCF757FC2046FAF752FF2A
:1058F0000249086010BD0000001001404034014022
:1059000010B50446002210210448FCF745FC84F041
:105910000040FAF73FFF0249086010BD0010014047
:105920004034014010B50446012251030448FCF7FD
:1059300033FC2046FAF72EFF0249086010BD000034
:10594000001001403C34014010B5044600224FF4E1
:1059500000510548FCF720FC84F00040FAF71AFFDC
:105960000249086010BD0000001001403C340140B5
:1059700010B50446012291030448FCF70DFC2046B3
:10598000FAF708FF0249086010BD0000001001404E
:105990003834014010B5044600224FF480410548D8
:1059A000FCF7FAFB84F00040FAF7F4FE02490860C5
:1059B00010BD0000001001403834014010B504460D
:1059C0000122D1030448FCF7E7FB2046FAF7E2FE88
:1059D0000249086010BD000000100140343401404D
:1059E00010B5044600224FF400410548FCF7D4FBF3
:1059F00084F00040FAF7CEFE0249086010BD0000B6
:105A00000010014034340140124A50B101280FD037
:105A1000022814D003281BD19142084616D2FFF762
:105A2000CDBF9142084601D2FFF758BFFFF768BFCC
:105A30009142084601D2FFF775BFFFF785BF91423B
:105A4000084601D2FFF794BFFFF7A4BFFFF7C8BF16
:105A50007047000000008080D4B002F07BFA00277D
:105A60003E461C22FE496846FAF7DCFB0024DFF8BC
:105A7000F49307942546494632A80894FFF756FB4D
:105A8000494635A8FFF752FB30211FA8FAF7E3FB80
:105A90003094182138A83194FAF7DDFB18213EA87C
:105AA000FAF7D9FB182144A8FAF7D5FB18214CA81E
:105AB000FAF7D1FB02F06EFADFF8ACB3DFF8ACA373
:105AC00002F014FE529001F037FEC01B05287DD372
:105AD000DAF82800D04648B10122694602F0F6FC07
